{
  "_format": "hh-sol-artifact-1",
  "contractName": "Upload",
  "sourceName": "contracts/Upload.sol",
  "abi": [
    {
      "inputs": [
        {
          "internalType": "address",
          "name": "_user",
          "type": "address"
        },
        {
          "internalType": "string",
          "name": "url",
          "type": "string"
        }
      ],
      "name": "add",
      "outputs": [],
      "stateMutability": "nonpayable",
      "type": "function"
    },
    {
      "inputs": [
        {
          "internalType": "address",
          "name": "user",
          "type": "address"
        }
      ],
      "name": "allow",
      "outputs": [],
      "stateMutability": "nonpayable",
      "type": "function"
    },
    {
      "inputs": [
        {
          "internalType": "address",
          "name": "user",
          "type": "address"
        }
      ],
      "name": "disallow",
      "outputs": [],
      "stateMutability": "nonpayable",
      "type": "function"
    },
    {
      "inputs": [
        {
          "internalType": "address",
          "name": "_user",
          "type": "address"
        }
      ],
      "name": "display",
      "outputs": [
        {
          "internalType": "string[]",
          "name": "",
          "type": "string[]"
        }
      ],
      "stateMutability": "view",
      "type": "function"
    },
    {
      "inputs": [],
      "name": "shareAccess",
      "outputs": [
        {
          "components": [
            {
              "internalType": "address",
              "name": "user",
              "type": "address"
            },
            {
              "internalType": "bool",
              "name": "access",
              "type": "bool"
            }
          ],
          "internalType": "struct Upload.Access[]",
          "name": "",
          "type": "tuple[]"
        }
      ],
      "stateMutability": "view",
      "type": "function"
    }
  ],
  "bytecode": "0x608060405234801561001057600080fd5b5061136f806100206000396000f3fe608060405234801561001057600080fd5b50600436106100575760003560e01c806336d6da551461005c578063a9ed9cb814610078578063bc8bef8114610094578063eb39113f146100b2578063ff9913e8146100e2575b600080fd5b61007660048036038101906100719190610c18565b6100fe565b005b610092600480360381019061008d9190610c74565b610173565b005b61009c610395565b6040516100a99190610da9565b60405180910390f35b6100cc60048036038101906100c79190610c74565b61049e565b6040516100d99190610f0c565b60405180910390f35b6100fc60048036038101906100f79190610c74565b6106b4565b005b6000808373ffffffffffffffffffffffffffffffffffffffff1673ffffffffffffffffffffffffffffffffffffffff1681526020019081526020016000208190806001815401808255809150506001900390600052602060002001600090919091909150908161016e9190611144565b505050565b6000600160003373ffffffffffffffffffffffffffffffffffffffff1673ffffffffffffffffffffffffffffffffffffffff16815260200190815260200160002060008373ffffffffffffffffffffffffffffffffffffffff1673ffffffffffffffffffffffffffffffffffffffff16815260200190815260200160002060006101000a81548160ff02191690831515021790555060005b600260003373ffffffffffffffffffffffffffffffffffffffff1673ffffffffffffffffffffffffffffffffffffffff16815260200190815260200160002080549050811015610391578173ffffffffffffffffffffffffffffffffffffffff16600260003373ffffffffffffffffffffffffffffffffffffffff1673ffffffffffffffffffffffffffffffffffffffff16815260200190815260200160002082815481106102bd576102bc611216565b5b9060005260206000200160000160009054906101000a900473ffffffffffffffffffffffffffffffffffffffff1673ffffffffffffffffffffffffffffffffffffffff160361037e576000600260003373ffffffffffffffffffffffffffffffffffffffff1673ffffffffffffffffffffffffffffffffffffffff168152602001908152602001600020828154811061035957610358611216565b5b9060005260206000200160000160146101000a81548160ff0219169083151502179055505b808061038990611274565b91505061020b565b5050565b6060600260003373ffffffffffffffffffffffffffffffffffffffff1673ffffffffffffffffffffffffffffffffffffffff168152602001908152602001600020805480602002602001604051908101604052809291908181526020016000905b82821015610495578382906000526020600020016040518060400160405290816000820160009054906101000a900473ffffffffffffffffffffffffffffffffffffffff1673ffffffffffffffffffffffffffffffffffffffff1673ffffffffffffffffffffffffffffffffffffffff1681526020016000820160149054906101000a900460ff161515151581525050815260200190600101906103f6565b50505050905090565b60603373ffffffffffffffffffffffffffffffffffffffff168273ffffffffffffffffffffffffffffffffffffffff1614806105605750600160008373ffffffffffffffffffffffffffffffffffffffff1673ffffffffffffffffffffffffffffffffffffffff16815260200190815260200160002060003373ffffffffffffffffffffffffffffffffffffffff1673ffffffffffffffffffffffffffffffffffffffff16815260200190815260200160002060009054906101000a900460ff165b61059f576040517f08c379a000000000000000000000000000000000000000000000000000000000815260040161059690611319565b60405180910390fd5b6000808373ffffffffffffffffffffffffffffffffffffffff1673ffffffffffffffffffffffffffffffffffffffff168152602001908152602001600020805480602002602001604051908101604052809291908181526020016000905b828210156106a957838290600052602060002001805461061c90610f5d565b80601f016020809104026020016040519081016040528092919081815260200182805461064890610f5d565b80156106955780601f1061066a57610100808354040283529160200191610695565b820191906000526020600020905b81548152906001019060200180831161067857829003601f168201915b5050505050815260200190600101906105fd565b505050509050919050565b60018060003373ffffffffffffffffffffffffffffffffffffffff1673ffffffffffffffffffffffffffffffffffffffff16815260200190815260200160002060008373ffffffffffffffffffffffffffffffffffffffff1673ffffffffffffffffffffffffffffffffffffffff16815260200190815260200160002060006101000a81548160ff021916908315150217905550600360003373ffffffffffffffffffffffffffffffffffffffff1673ffffffffffffffffffffffffffffffffffffffff16815260200190815260200160002060008273ffffffffffffffffffffffffffffffffffffffff1673ffffffffffffffffffffffffffffffffffffffff16815260200190815260200160002060009054906101000a900460ff16156109625760005b600260003373ffffffffffffffffffffffffffffffffffffffff1673ffffffffffffffffffffffffffffffffffffffff16815260200190815260200160002080549050811015610960578173ffffffffffffffffffffffffffffffffffffffff16600260003373ffffffffffffffffffffffffffffffffffffffff1673ffffffffffffffffffffffffffffffffffffffff168152602001908152602001600020828154811061088c5761088b611216565b5b9060005260206000200160000160009054906101000a900473ffffffffffffffffffffffffffffffffffffffff1673ffffffffffffffffffffffffffffffffffffffff160361094d576001600260003373ffffffffffffffffffffffffffffffffffffffff1673ffffffffffffffffffffffffffffffffffffffff168152602001908152602001600020828154811061092857610927611216565b5b9060005260206000200160000160146101000a81548160ff0219169083151502179055505b808061095890611274565b9150506107da565b505b600260003373ffffffffffffffffffffffffffffffffffffffff1673ffffffffffffffffffffffffffffffffffffffff16815260200190815260200160002060405180604001604052808373ffffffffffffffffffffffffffffffffffffffff168152602001600115158152509080600181540180825580915050600190039060005260206000200160009091909190915060008201518160000160006101000a81548173ffffffffffffffffffffffffffffffffffffffff021916908373ffffffffffffffffffffffffffffffffffffffff16021790555060208201518160000160146101000a81548160ff021916908315150217905550505050565b6000604051905090565b600080fd5b600080fd5b600073ffffffffffffffffffffffffffffffffffffffff82169050919050565b6000610a9f82610a74565b9050919050565b610aaf81610a94565b8114610aba57600080fd5b50565b600081359050610acc81610aa6565b92915050565b600080fd5b600080fd5b6000601f19601f8301169050919050565b7f4e487b7100000000000000000000000000000000000000000000000000000000600052604160045260246000fd5b610b2582610adc565b810181811067ffffffffffffffff82111715610b4457610b43610aed565b5b80604052505050565b6000610b57610a60565b9050610b638282610b1c565b919050565b600067ffffffffffffffff821115610b8357610b82610aed565b5b610b8c82610adc565b9050602081019050919050565b82818337600083830152505050565b6000610bbb610bb684610b68565b610b4d565b905082815260208101848484011115610bd757610bd6610ad7565b5b610be2848285610b99565b509392505050565b600082601f830112610bff57610bfe610ad2565b5b8135610c0f848260208601610ba8565b91505092915050565b60008060408385031215610c2f57610c2e610a6a565b5b6000610c3d85828601610abd565b925050602083013567ffffffffffffffff811115610c5e57610c5d610a6f565b5b610c6a85828601610bea565b9150509250929050565b600060208284031215610c8a57610c89610a6a565b5b6000610c9884828501610abd565b91505092915050565b600081519050919050565b600082825260208201905092915050565b6000819050602082019050919050565b610cd681610a94565b82525050565b60008115159050919050565b610cf181610cdc565b82525050565b604082016000820151610d0d6000850182610ccd565b506020820151610d206020850182610ce8565b50505050565b6000610d328383610cf7565b60408301905092915050565b6000602082019050919050565b6000610d5682610ca1565b610d608185610cac565b9350610d6b83610cbd565b8060005b83811015610d9c578151610d838882610d26565b9750610d8e83610d3e565b925050600181019050610d6f565b5085935050505092915050565b60006020820190508181036000830152610dc38184610d4b565b905092915050565b600081519050919050565b600082825260208201905092915050565b6000819050602082019050919050565b600081519050919050565b600082825260208201905092915050565b60005b83811015610e31578082015181840152602081019050610e16565b60008484015250505050565b6000610e4882610df7565b610e528185610e02565b9350610e62818560208601610e13565b610e6b81610adc565b840191505092915050565b6000610e828383610e3d565b905092915050565b6000602082019050919050565b6000610ea282610dcb565b610eac8185610dd6565b935083602082028501610ebe85610de7565b8060005b85811015610efa5784840389528151610edb8582610e76565b9450610ee683610e8a565b925060208a01995050600181019050610ec2565b50829750879550505050505092915050565b60006020820190508181036000830152610f268184610e97565b905092915050565b7f4e487b7100000000000000000000000000000000000000000000000000000000600052602260045260246000fd5b60006002820490506001821680610f7557607f821691505b602082108103610f8857610f87610f2e565b5b50919050565b60008190508160005260206000209050919050565b60006020601f8301049050919050565b600082821b905092915050565b600060088302610ff07fffffffffffffffffffffffffffffffffffffffffffffffffffffffffffffffff82610fb3565b610ffa8683610fb3565b95508019841693508086168417925050509392505050565b6000819050919050565b6000819050919050565b600061104161103c61103784611012565b61101c565b611012565b9050919050565b6000819050919050565b61105b83611026565b61106f61106782611048565b848454610fc0565b825550505050565b600090565b611084611077565b61108f818484611052565b505050565b5b818110156110b3576110a860008261107c565b600181019050611095565b5050565b601f8211156110f8576110c981610f8e565b6110d284610fa3565b810160208510156110e1578190505b6110f56110ed85610fa3565b830182611094565b50505b505050565b600082821c905092915050565b600061111b600019846008026110fd565b1980831691505092915050565b6000611134838361110a565b9150826002028217905092915050565b61114d82610df7565b67ffffffffffffffff81111561116657611165610aed565b5b6111708254610f5d565b61117b8282856110b7565b600060209050601f8311600181146111ae576000841561119c578287015190505b6111a68582611128565b86555061120e565b601f1984166111bc86610f8e565b60005b828110156111e4578489015182556001820191506020850194506020810190506111bf565b8683101561120157848901516111fd601f89168261110a565b8355505b6001600288020188555050505b505050505050565b7f4e487b7100000000000000000000000000000000000000000000000000000000600052603260045260246000fd5b7f4e487b7100000000000000000000000000000000000000000000000000000000600052601160045260246000fd5b600061127f82611012565b91507fffffffffffffffffffffffffffffffffffffffffffffffffffffffffffffffff82036112b1576112b0611245565b5b600182019050919050565b600082825260208201905092915050565b7f596f7520646f6e27742068617665206163636573730000000000000000000000600082015250565b60006113036015836112bc565b915061130e826112cd565b602082019050919050565b60006020820190508181036000830152611332816112f6565b905091905056fea264697066735822122050f3fa1eff2e386481a15bccc12ddde71dbb68ff35ef9e499090284c9e69e6c664736f6c63430008130033",
  "linkReferences": {},
  "deployedLinkReferences": {}
}